:020000040800F2
:10000000509F00205D02000873250008612300084E
:10001000712500085F0E0008C12D000800000000D7
:100020000000000000000000000000009D0100082A
:10003000610E000800000000F90100082D290008E9
:1000400077020008770200087702000877020008AC
:10005000770200087702000877020008770200089C
:10006000770200087702000877020008770200088C
:10007000770200087702000877020008770200087C
:10008000770200087702000877020008770200086C
:10009000770200087702000877020008770200085C
:1000A00077020008152A0008770200087702000886
:1000B000770200087702000877020008770200083C
:1000C000770200087702000877020008770200082C
:1000D000770200089D2D0008A92D0008B52D000805
:1000E000770200087702000877020008770200080C
:1000F00077020008770200087702000877020008FC
:1001000077020008770200087702000877020008EB
:1001100077020008770200087702000877020008DB
:1001200077020008770200087702000877020008CB
:1001300077020008770200087702000877020008BB
:1001400077020008770200087702000877020008AB
:10015000770200087702000877020008770200089B
:10016000770200087702000877020008770200088B
:1001700077020008770200087702000800000000FC
:100180007702000877020008DFF80CD000F0DAFDF3
:10019000004800474D3B0008509F00202C4B196839
:1001A0000868B0E8F04F80F30988BFF36F8F4FF015
:1001B000000080F3118870470000000008480068C4
:1001C000006880F308884FF0000080F3148862B65E
:1001D00061B6BFF34F8FBFF36F8F00DF00BF00BF6B
:1001E00008ED00E0DFF80C00016841F470010160E7
:1001F000704700BF88ED00E0EFF30980BFF36F8F19
:10020000134B1A681EF0100F08BF20ED108A20E96A
:10021000F04F106009B44FF0500080F31188BFF325
:100220004F8FBFF36F8F04F05FFE4FF0000080F33D
:10023000118809BC19680868B0E8F04F1EF0100F6B
:1002400008BFB0EC108A80F30988BFF36F8F704746
:1002500098010020EFF305807047000006488047B2
:1002600006480047FEE7FEE7FEE7FEE7FEE7FEE79B
:10027000FEE7FEE7FEE7FEE7F9290008890100082E
:100280002DE9F05F0546002092469B4688460646CB
:10029000814640241BE0284641464746224600F05E
:1002A000B4FB53465A46C01A914110D31146184622
:1002B000224600F09BFB2D1A67EB01084F462246B1
:1002C0000120002100F092FB17EB00094E41201E97
:1002D000A4F10104DFDC484631462A464346BDE826
:1002E000F09FA0F14101192900D82030704740EA61
:1002F00001039B0703D009E008C9121F08C0042AA4
:10030000FAD203E011F8013B00F8013B521EF9D28A
:100310007047D2B201E000F8012B491EFBD27047B2
:100320000022F6E710B513460A4604461946FFF7C1
:10033000F0FF204610BD421C10F8011B0029FBD124
:10034000801A704710B5002200E0521C835C8C5C60
:10035000A34201D1002BF8D1D8B2E1B2401A10BDAE
:10036000034611F8012B00F8012B002AF9D1184699
:10037000704730B505460020034600E05B1C934201
:1003800005D2EC5CC85C201A01D1002CF6D130BD3E
:100390002DE9FF4F087883B09946FF2805D0491C06
:1003A0002D2804D00024002008E000200BE00124C8
:1003B000F9E700EB800003EB4000491C0B78FF2BB2
:1003C000F7D104B1404200230293147819461D4628
:1003D0002D2C01D02B2C04D1521C2D2C13D00024F9
:1003E0000294AA461478FF2C0FD00A25A3FB0578A7
:1003F00001FB05814FF0000C03FB0C11521CE319AB
:100400004AEB0101EEE70124EAE7814453EA0100E7
:1004100002D019F5C87F06DA03980021C0E900115F
:1004200007B0BDE8F08F0025AE4E2F46DFF8B8824A
:10043000184600F047FCCDE90001B9F1000002DAEE
:10044000C9F1000400E004460023A74A1AEB030B9D
:1004500042EB045A12E0E00707D02A4633463846FA
:10046000414600F0ECF9074688462A4633461046D6
:10047000194600F0E4F905460E466410002CEAD156
:10048000DDE90001B9F1000F5A46534606DA00F0E3
:10049000AAFB3A46434600F0A6FB05E000F0CFF980
:1004A0003A46434600F0CBF9029A0AB181F0004186
:1004B000039AC2E90001B3E72DE9FF4F1F468DB053
:1004C000D7E901464FF0FF382E2045464FF000098E
:1004D0000B90B9696D1C0E988847396A8246884727
:1004E0000028F6D1BAF1FF3F0AD024F4D064002EE0
:1004F00011DDBAF12B0F08D0BAF12D0F0BD102E0AC
:10050000404611B08DE744F48064B9696D1C0E98C3
:1005100088478246761E6946600501D52D2000E099
:100520002B208DF8000001F1010B0DF1200809E0EE
:10053000B9696D1C0E98884782460F9844F4007480
:10054000761E0560002E02DDBAF1300FF0D00B9957
:100550008A453ED144F0800406E00F99681CA9F159
:10056000010944F400740860B9696D1C761E0E9888
:10057000884782463028F0D02BE00B998A4505D178
:10058000200603D444F08004761E18E0504602F0A2
:1005900089FD08B30DF11301761E44F400748B45F8
:1005A00008D2AAF130000BF8010B200607D5A9F1FB
:1005B000010003E0200602D409F101008146A005F4
:1005C00002D50F99681C0860B9696D1C0E988847A0
:1005D0008246002ED1DC53E0002E51DDBAF1650FCA
:1005E00002D0BAF1450F4BD1A00549D5B9696D1CB0
:1005F00024F44074761E0E9888478246002E0CDD47
:100600002B2804D0BAF12D0F07D144F48074B969B6
:100610006D1C0E9888478246761EE00501D52D2177
:1006200000E02B2108F8011BCDF82C8021E00DF112
:100630002901761E44F4007488450CD2AAF13000DA
:1006400010F0FF0088F8000002D10B99884509D905
:1006500008F1010806E0E00501D5244801E042F276
:100660000F708146B9696D1C0E98884782460F98B5
:100670000560002E04DD504602F014FD0028D6D19E
:10068000F9690E988847FF208BF8000088F8000071
:100690000020069007904B466A4608A906A8FFF777
:1006A00077FEA00502D46FF001002AE714F0240FB2
:1006B0000AD0E00714D1DDE906123868031D3B605B
:1006C0000068C0E900120BE0DDE9060100F01EFB46
:1006D0000146E00704D13868021D3A6000680160F5
:1006E00028460EE7000014400000F03FF1D8FFFF5D
:1006F0002DE9FE4F804681EA0300C00F0C460090B2
:1007000021F0004123F00045B8EB0200A94105D2D9
:100710004046214690461C460B46024623F00040C8
:10072000104347D0270DC7F30A00C3F30A510290C4
:10073000401A019040286BDAC3F3130040F4801B89
:100740000098924620B10023D2EB030A63EB0B0B17
:1007500001985946C0F14002504600F047F906465C
:100760000D4650465946019A00F05FF910EB08001B
:100770006141002487EA115284EAE7731A4340D0AA
:10078000009A62B3019A012A4FEA075215DC001B56
:1007900061EB02014FF0004202EA0752CDE900424C
:1007A000001C41F5801132462B4600F0CEF903B013
:1007B000BDE8F08F40462146F9E7001B61EB0201DE
:1007C000001C41F5801300185B412018A2F50017AA
:1007D00047EB030140EAD570B6196D4111E06D0891
:1007E0004FEA360645EAC0754FEA0752001B61EB37
:1007F0000201001C41F5801149084FEA3000001940
:10080000514132462B4603B0BDE8F04F00F08EB99F
:100810000098012240000023D0EB020263EBE0735A
:10082000009821464FEAE074B8EB000061EB040148
:10083000E9E783F000435BE781F0004158E72DE9E9
:10084000FE4F81EA030404F0004421F000410094CB
:100850004FF0000B23F0004350EA01045ED052EA4F
:1008600003045BD0C3F30A54C1F30A552C44A4F229
:10087000F3340194A0FB0254C1F3130141F480113D
:10088000C3F3130343F4801301FB024400FB034E44
:10089000840A970A44EA815447EA8357A4FB07680D
:1008A00002958D0A05FB07854FEA932C04FB0C5437
:1008B0002705029D4FEA065847EA1637B5EB0805AB
:1008C0006EEB070C870E920E47EA811742EA8312FD
:1008D000A7FB0201B6EB0B0164EB00042B0D43EA0E
:1008E0000C335E1844EB1C50DA465146E7FB02011C
:1008F000C5F313044FEA0B3343EA14534FEA0432AF
:10090000019C43EA0603A4F10C040294009CCDE987
:1009100000B400F01AF903B0BDE8F08F00200146E2
:10092000F9E770B5C1F30A5201F000450024C1F3A4
:10093000130140F2FF3341F480119A4201DA0020A2
:1009400070BD40F233439A42A2F2334203DC52427A
:1009500000F05BF800E090402C43F1D0404270BDC5
:1009600030B5041E71F1000404DB4FF00044404236
:1009700064EB0101141E73F1000405DB1C464FF00B
:100980000043524263EB04038B4208BF824230BDF6
:1009900030B5041E71F1000404DB4FF00044404206
:1009A00064EB0101141E73F1000405DB1C464FF0DB
:1009B0000043524263EB0403994208BF904230BDAA
:1009C00030B50B46014600202022012409E021FA1F
:1009D00002F59D4205D303FA02F5491B04FA02F51C
:1009E0002844151EA2F10102F1DC30BD202A04DBEF
:1009F000203A00FA02F1002070479140C2F1200332
:100A000020FA03F3194390407047202A04DB203A70
:100A100021FA02F00021704721FA02F3D040C2F11E
:100A200020029140084319467047202A06DBCB1765
:100A3000203A41FA02F043EAE07306E041FA02F399
:100A4000D040C2F1200291400843194670474268E5
:100A500042B1016811F8013B23B1521EC0E90012F6
:100A6000184670470121C160881E704742685AB11C
:100A7000C368016843B983688B4205D0491E521C84
:100A8000C0E90012002070474FF0FF3070470000AF
:100A90000FB4002300B589B00CA900910B996FF039
:100AA0000042CB601E4B06931E4B07930423CDE9F7
:100AB00001321D4A089202466B460020FFF7FCFCFB
:100AC00009B05DF814FB70B586B006464FF0FF30F4
:100AD0000091CDE90101002015460C4604903246F4
:100AE000694604A8FFF7D4FF02460498211825B1EF
:100AF00008B1084600E020462860049800280DD080
:100B0000002A02DD0098884208D0081B0094CDE935
:100B100001043246694604A8FFF7BAFF06B070BD6B
:100B20004F0A00086D0A0008690D000810B5141E70
:100B300073F1000408DA401C41F1000192185B4196
:100B40001A4301D120F0010010BD2DE9F04D92466D
:100B50009B4611B1B1FA81F202E0B0FA80F2203284
:100B60009046FFF743FF04460F4640EA0A0041EA79
:100B70000B0153465A46084313D0114653EA01006D
:100B800019D0C8F140025046FFF73FFF05460E4618
:100B9000504659464246FFF729FF084305D0012039
:100BA00004E020463946BDE8F08D0020054346EAC2
:100BB000E0762C4337430A986305E40AA0EB08006B
:100BC0000022FD0A44EA47540A3002D500200146BB
:100BD000E9E7010510196941DDE908450019694196
:100BE000BDE8F04DA2E72DE9F04D81EA030404F0E1
:100BF000004B21F0004514464FF0000A23F000415D
:100C000050EA050220D054EA01021DD0C5F30A576C
:100C10000246C5F31303C1F31300C1F30A5640F4AF
:100C2000801543F48013A7EB0608101BD64608F284
:100C3000FD3873EB050002D308F1010801E09218BA
:100C40005B41B8F1000F03DA00200146BDE8F08DEA
:100C500000204FF48011064684460EE0171B73EB0C
:100C6000050705D3121B63EB050306434CEA010C91
:100C700049084FEA300092185B4150EA0107EDD174
:100C800052EA030012D082EA040083EA0501084315
:100C900005D0101BAB4106D20122002306E0002242
:100CA0004FF0004302E06FF0010253101AEB060010
:100CB0004CEB085110EB0A0041EB0B01BDE8F04D85
:100CC000FFF734BF0EB540F2334202920022CDE965
:100CD00000221346FFF739FF03B000BDC1F30A52EB
:100CE000C1F3130140F2FF3341F480119A4202DA5A
:100CF00000200146704740F233439A42A2F2334249
:100D000002DC5242FFF781BEFFF770BE01F00043E4
:100D100030B421F0004150EA010206D00A0DA2F5DC
:100D20006072C1F31301002A02DC30BC002070475E
:100D3000440F44EAC104C100E01830BC00EBC250CB
:100D400000F017B8064C074D06E0E06840F00103DC
:100D500094E8070098471034AC42F6D3FFF718FA2E
:100D6000BC5A0008DC5A0008C0B24FF4F05100F041
:100D700037B80029A8BF7047401C490008BF20F0C1
:100D80000100704710B4B0FA80FC00FA0CF050EA91
:100D9000010404BF10BC704749B1CCF1200421FA12
:100DA00004F411FA0CF118BF012121430843A3EB0D
:100DB0000C01CB1D4FEA00614FEA102042BF00201A
:100DC00010BC704700EBC35010440029A4BF10BCF6
:100DD0007047401C490008BF20F0010010BC70475C
:100DE0007F2801D9002208E0064A02EB5002C00722
:100DF000127800D1120902F00F0201209040084041
:100E000070470000585A000870B58C1810F8015B44
:100E100015F0070301D110F8013B2A1106D110F893
:100E2000012B03E010F8016B01F8016B5B1EF9D197
:100E30002B0705D40023521E0DD401F8013BFAE71D
:100E400010F8013BCB1A921C03E013F8015B01F888
:100E5000015B521EF9D5A142D8D3002070BDFEE738
:100E60007047000010B50E4802F0D6FD0C48093856
:100E700002F0D2FD0A480E3002F0CEFD08483730AD
:100E800002F0CAFD0648453002F0C6FD0448703045
:100E900002F0C2FD0248BDE810407F3002F0BCBD48
:100EA000470000207047000010B50E4800F01CF805
:100EB0000C48093800F018F80A480E3000F014F811
:100EC0000848373000F010F80648453000F00CF8BC
:100ED0000448703000F008F80248BDE810407F3048
:100EE00000F002B84700002010B50446FFF723FACF
:100EF00082B2FF232146064801F094F921460548B5
:100F000001F060FFBDE8104040F6AC5002F072BF47
:100F10009C0D0020443A000890F83510022903D0B7
:100F20008021416501207047052180F83510006857
:100F3000016821F0010101600020704770B504468E
:100F400000F0F6F80546601C02D00448007804441E
:100F500000F0EEF8401BA042FAD370BD88010020DB
:100F60002DE9F84F00224FF0010803254FF00F0E36
:100F70000B6808FA02F42340A3426ED14E68012E9A
:100F800005D0022E03D0112E01D0122E12D1866868
:100F90004FEA420C05FA0CF7BE43CF6807FA0CF78C
:100FA000374387604668A6430C79C4F30014944025
:100FB00034434460C668570005FA07FC8C6826EA8B
:100FC0000C06BC403443C4604C68022C01D0122C87
:100FD00013D1D40800EB8404A346D4F8209054071E
:100FE0004FEAD46A0EFA0AF629EA06090E6906FAE9
:100FF0000AF646EA0906CBF8206006680C7926EA6C
:101000000C0604F00304BC40344304604C68E40064
:1010100065D5364C266846F480462660246822F062
:10102000030604F480440094314C3444A446D4F8BC
:1010300008489607370F0EFA07F6B4432D4EB04214
:1010400001D1002624E02C4EB04201D101261FE040
:101050002A4EB04202D102261AE040E0284EB042A9
:1010600001D1032614E0274EB04201D104260FE03F
:10107000254EB04201D105260AE0244EB04201D1EE
:10108000062605E0224EB04201D1072600E00826E0
:10109000BE402643CCF808681E4E34684F689C4317
:1010A000FF0300D51C4334601A4C241D26684F688A
:1010B0009E43BF0300D51E432660164E0836346893
:1010C0004F689C43FF0200D51C433460114E0C3620
:1010D00034684F689C43BF0200D51C433460521CE7
:1010E000102AFFF445AFBDE8F88F000044380240F5
:1010F00000300140000002400004024000080240AD
:10110000000C02400010024000140240001802408F
:10111000001C0240003C0140426931EA020200D159
:101120000904816170470AB1816170470904FBE7D6
:1011300001488068704700008801002002488168EB
:101140000278114481607047880100200B4810B577
:10115000016841F400710160016841F4806101603F
:10116000016841F480710160032000F08DF80020D7
:1011700000F006F800F03EF8002010BD003C0240F0
:1011800010B5014688B00022192000F05DF8192042
:1011900000F04CF813480024016841F0010101609F
:1011A000006805A900F001000690684600F0B6F955
:1011B00000F0E4F90C490D4AB0FBF1F10C48491E6E
:1011C000026040F2E732C0E90324C0E9011400F0F4
:1011D0006AFD10B1012008B010BD054800F07FFD88
:1011E000F9E700004438024040420F00000001408F
:1011F0001C0E00200C4882B0016841F4804101605F
:10120000006800F4804000900748001F016841F02A
:10121000805101600068002200F0805000900F2192
:10122000901E02B000F010B844380240002809DBDC
:1012300000F01F02012191404009800000F1E020F0
:10124000C0F8001170470000F0B40E4B1B680C464C
:10125000C3F30223C3F10705042D00D90425191D8A
:10126000072901D2002300E0DB1E012606FA05F162
:10127000491E214099409E40761E16403143F0BCE5
:1012800001F0C4BD0CED00E0064900F0070208685B
:101290004FF6FF03184040EA0220034A104308605B
:1012A000704700000CED00E00000FA052DE9F8435E
:1012B000054600684FF00109C1074FF0000601D153
:1012C000400727D5DFF80C81C8F86860FFF730FFCA
:1012D0000746414C05E000BFFFF72AFFC01B02286C
:1012E00057D820680001F7D468688101287A41EA5C
:1012F0000070394984310860C8F86890FFF718FF1A
:10130000074604E0FFF714FFC01B022841D82068FD
:101310000001F7D52878800752D52F484030016862
:1013200041F08051016000682C4C00F0805000902A
:10133000206840F480702060FFF7FAFE074604E062
:10134000FFF7F6FEC01B022823D82068C005F7D59A
:10135000214C7034206810F4407020D0A98901F429
:10136000407181421BD020681D4920F44070C1F8B3
:1013700000900E6020602068C00710D0FFF7D8FEF4
:10138000064641F2883707E0FFF7D2FE801BB842DD
:1013900002D90320BDE8F88320688007F4D5E96806
:1013A0000D48C1F301220830032A0BD0016821F453
:1013B000F81101602068A989C1F30B01084320607E
:1013C0000020E7E70268074B22F4F81219400A43AD
:1013D0000260EFE700004742003802400070004022
:1013E000400E4742FFFCFF0F2DE9F0470E46050077
:1013F00065D0DFF81481D8F80000F7B200F00F00D4
:10140000B04207D288F80070D8F8000000F00F0052
:10141000B04254D128683D4C810712D5400703D50E
:10142000206840F4E05020602878000703D5206849
:1014300040F4604020602068A96820F0F000084374
:1014400020602878C0072DD0304968680839012805
:1014500012D0022813D0032811D009688907002967
:101460002DDA216821F0030101432160FFF760FEBE
:10147000814641F2883A0EE009688903EFE709687E
:101480008901ECE7FFF754FEA0EB0901514502D9B1
:101490000320BDE8F0872068696800F00C00B0EB1D
:1014A000810FEFD1D8F80010404601F00F01B14292
:1014B00007D90770006800F00F00B04201D001208A
:1014C000E7E72878400705D52068E96820F4E05070
:1014D000084320602878000706D52068296920F491
:1014E000604040EAC100206000F058F82168084AD6
:1014F000C1F30311515CC840064908600648006802
:10150000FFF73EFE0020C4E7003C024008380240DE
:10151000405A0008940100208C0100200F22026034
:101520000C4A136803F003034360136803F0F003ED
:101530008360136803F4E053C36012684FF4E05310
:1015400003EAD20202610448006800F00F0008605C
:101550007047000008380240003C0240044805493A
:1015600000680968044AC1F38221515CC840704791
:101570009401002008380240505A000804480549E8
:1015800000680968044AC1F34231515CC8407047A1
:101590009401002008380240505A0008154810B540
:1015A000006810F00C02144813D04110042A0FD028
:1015B000082A0ED10F4C241F2268236802F03F0234
:1015C0005B0207D52068C0F38810A0FB010106E08C
:1015D000084610BD2168C1F38811A1FB000100235A
:1015E000FEF74EFE2168C1F30141491C4900B0FBE2
:1015F000F1F010BD083802400024F4002DE9F84F46
:1016000004006ED02078DFF83C93C007A9F10405F0
:101610004AD009F104000168C1F38101012908D011
:101620000068C0F3810002280AD1D9F80000400206
:1016300006D52868800337D560680028E1D033E0FC
:101640006068B0F5803F10D0B0F5A02F286810D0AA
:1016500020F480302860286820F4802028606068AA
:10166000A8B1FFF765FD06460DE0286840F480301C
:10167000F4E740F480202860F7E700BFFFF758FD4B
:10168000801B642873D828688003F7D50CE0FFF727
:101690004FFD064605E000BFFFF74AFD801B6428AA
:1016A000F0D828688003F7D42078DFF89C82800780
:1016B0004FF0000A3ED5A348001D016811F00C0F41
:1016C00008D00068C0F3810002280BD1D9F80000CF
:1016D000400207D42868800716D5E068012800D1A9
:1016E00012E02BE1E068B8B10120C8F80000FFF774
:1016F0001FFD064605E000BFFFF71AFD801B02280C
:10170000C0D828688007F7D52868216920F0F8003C
:1017100040EAC10028600DE0C8F800A0FFF708FD0E
:10172000064604E0FFF704FD801B02281FD8286846
:101730008007F7D42078000722D5824E834861695C
:10174000703671B101210160FFF7F2FC074604E039
:10175000FFF7EEFCC01B022809D830688007F7D5D8
:101760000EE0C0F800A0FFF7E3FC074605E082E0CA
:10177000FFF7DEFCC01B02287DD830688007F7D455
:101780002078400768D5DFF8BCB100270BF13C0B8F
:10179000DBF80000C0000BD4DBF8001041F08051F2
:1017A000CBF80010DBF80000012700F0805000901B
:1017B000674E3068C00510D4306840F480703060E7
:1017C000FFF7B6FC009005E0FFF7B2FC0099401A65
:1017D000022850D83068C005F6D55A4EA0686C363D
:1017E00001280FD00528306810D020F001003060AB
:1017F000306820F004003060A068B8B1FFF798FCB2
:1018000000900FE0306840F00100F4E740F0040081
:101810003060F7E7FFF78CFC0099411A41F28830FD
:10182000814266D830688007F4D50EE0FFF780FC6F
:10183000009007E0FFF77CFC0099411A41F28830E4
:10184000814256D830688007F4D42FB1DBF80010FD
:1018500021F08051CBF80010A069C8B33949091DA7
:101860000968C1F3810102294AD00228504607D0F5
:10187000C8F8600000E03CE0FFF75AFC04463BE09B
:101880004746C8F86000FFF753FC064605E000BF76
:10189000FFF74EFC801B02282BD828688001F7D464
:1018A000D4E907010843A16A2A4A490802EB014129
:1018B000626A41EA8211084394F82C1040EA0161FF
:1018C000C9F8001001203866FFF732FC044606E034
:1018D00036E000BFFFF72CFC001B022809D828685F
:1018E0008001F7D52CE000BFFFF722FC001B022887
:1018F00002D90320BDE8F88F28688001F4D41FE0E6
:101900000128F7D0D9F80000E26900F48001914283
:1019100014D1226A00F03F0191420FD147F6C07105
:10192000626A0140914209D1A26A00F440319142B9
:1019300004D1E16A00F07060884201D00120D9E74B
:101940000020D7E70438024000004742800E47429B
:10195000007000400000FFFF10B500680B464168B2
:101960000D480140080CD870C1F304245C7001F0EC
:101970003F049C70C1F34231197052B900F0FAFD76
:10198000D870587800F0F6FD5870987800F0F2FDA5
:101990009870002010BD00003FFFFF0010B50B46FF
:1019A0000168896A596001680969C1F30E0199608B
:1019B000006801680E480140C1F305401870C1F38A
:1019C00006245C7001F07F049C70402404EA1141FD
:1019D000D97052B900F0CEFD1870587800F0CAFDE9
:1019E0005870987800F0C6FD9870002010BD000077
:1019F0007F7F7F0070B5040002D0607F10B106E0E9
:101A0000012070BD00202077204600F049F8022018
:101A100060772168CA2048622168532048622046C6
:101A200000F0BCFDFF25042618BB206881681B4A16
:101A3000114081602168886862681043D4E90423FA
:101A40001A43104388602168E068086120680169D2
:101A5000228941EA024101612068C16821F08001C8
:101A6000C16020688068800607D4204600F0FEF838
:101A700018B1206845626677C2E72068016C21F4DE
:101A8000802101642068016CA2691143016420680F
:101A9000456201206077002070BD0000BFFF8FFF0E
:101AA00000680349884202D102490120086070475A
:101AB000002800403C0E47422DE9F0470446007FD5
:101AC0000B4601281FD04FF0010984F81C9002201A
:101AD0006077DAB19878D97840EA01455878197872
:101AE000000240EA413005432168CA20486221686B
:101AF00053204862204600F051FD0026FF274FF09A
:101B0000040860BB1AE00220BDE8F0875878C106DF
:101B100003D500F0EF000A305870D87800F033FD9C
:101B20000204587800F02FFD42EA0022987800F075
:101B30002AFD0243187842EA4035D5E70F480540B0
:101B4000206845602068C16821F08001C16020687C
:101B5000806880060AD4204600F088F830B12068FA
:101B6000476284F81D8026770120CDE72068476210
:101B700084F81D9026770020C6E700003FFFFF0095
:101B80002DE9F0470446007F0D46012827D04FF08D
:101B9000010A84F81CA00220607720680026806873
:101BA0004FEA4060F2B1002800DBEE70A878297897
:101BB00040EA01476878E978000240EA01400743BB
:101BC0002168CA204862216853204862204600F0FC
:101BD000E5FC4FF0FF084FF00409A0BB16E002201F
:101BE000BDE8F087002800DBEE70287800F0CBFC21
:101BF0000204687800F0C7FC42EA0022A87800F0EE
:101C0000C2FC0243E87842EA0047D9E71648074099
:101C1000206807602068816821F480218160D5E90F
:101C20000301084321688A68104388602068C168FE
:101C300021F08001C1602068806880060BD42046B6
:101C400000F014F838B12168C1F8248084F81D90A0
:101C500026770120C4E72168C1F8248084F81DA0FC
:101C600026770020BCE700007F7F7F0070B5044628
:101C70000068C16821F0A001C160FFF759FA05466C
:101C80004FF47A7607E000BFFFF752FA401BB042EC
:101C900001D9032070BD2068C0688006F4D50020FB
:101CA00070BD7047704710B5040003D094F83D0034
:101CB00010B107E0012010BD002084F83C00204650
:101CC00000F00CF8022084F83D00211D206800F08F
:101CD000A7FE012084F83D00002010BD7047016878
:101CE000CA6842F00102CA600068816801F0070119
:101CF000062903D0016841F001010160002070470E
:101D0000704770B50446006801694FF00005C9438B
:101D1000890715D4C168C943890711D4E91E016137
:101D200001202077206880698007204602D0FFF7D5
:101D3000E7FF04E000F098F8204600F096F82577D9
:101D400020680169C943490717D4C168C9434907D5
:101D500013D46FF0040101610220207720688069AC
:101D600010F4407F204602D0FFF7CAFF04E000F0E5
:101D70007BF8204600F079F8257720680169C9438F
:101D8000090716D4C168C943090712D46FF00801C6
:101D90000161042020772068C0698007204602D0B6
:101DA000FFF7AEFF04E000F05FF8204600F05DF8BA
:101DB000257720680169C943C90617D4C168C9439A
:101DC000C90613D46FF01001016108202077206844
:101DD000C06910F4407F204602D0FFF791FF04E075
:101DE00000F042F8204600F040F8257720680169AD
:101DF000C943C90708D1C168C943C90704D1891EAD
:101E00000161204600F032F820680169C9430906E3
:101E100009D4C168C943090605D46FF08001016186
:101E20002046FFF73EFF20680169C943490609D4EF
:101E3000C168C943490605D46FF0400101612046DD
:101E400000F01EF820680169C94389060BD4C168F7
:101E5000C943890607D46FF0200101612046BDE81F
:101E60007040FFF71FBF70BD70477047006803499F
:101E7000884201D1FFF762B97047000000000140BD
:101E80007047704710F8391F4078084370470000CA
:101E900070B5026804461068D168536910F00F0FDE
:101EA00052D003F0010501F490762E435FD0C207B3
:101EB00005D0CA0503D5E26B42F00102E263420796
:101EC00005D5DA0703D0E26B42F00202E263820733
:101ED00005D5DA0703D0E26B42F00402E2630207A1
:101EE00007D501F020022A4303D0E26B42F008023A
:101EF000E263E26B002A33D0800604D5880602D55F
:101F0000204600F007FE20684069E16BC0F38010B6
:101F1000090700D428B3204600F0EEFD206841698F
:101F200049061AD5416921F040014161606BA0B1B9
:101F30001B490165606BFEF7EFFF002810D0606B56
:101F4000016DBDE870400847830610D58B060ED59D
:101F50002046BDE8704000F0DDBD2046FFF791FF50
:101F600070BD2046FFF78DFF0020E06370BD0306C3
:101F700006D50B0604D52046BDE8704000F0AABE89
:101F80004006F3D54806F1D5D168204621F040013E
:101F9000D160202184F8391000F0A1F970BD000053
:101FA000E92A000870B5040004D094F8390000252F
:101FB00010B106E0012070BD84F83850204600F0D2
:101FC00023F8242084F839002068C16821F40051E6
:101FD000C160204600F0EAFD2068016921F49041CB
:101FE00001612068416921F02A0141612068C168CE
:101FF00041F40051C160E563202084F8390084F881
:102000003A00002070BD0000F0B587B004461421EE
:102010006846FEF785F93D4B276800223C490224BB
:10202000032507263B489F4221D1394B14331F68B3
:1020300047F010071F601B6803F0100305930B683F
:1020400043F001030B60096802AB01F00101059147
:102050006902CDE9001483E864006946FEF780FF59
:10206000002205212520FFF7EFF8252024E0284B4A
:10207000DFF8A4C01033674522D11F6847F400374A
:102080001F601B6803F4003305930B6843F00103E2
:102090000B60096802AF01F0010105910C21CDE947
:1020A000001487E864006946FEF75AFF0022052104
:1020B0002620FFF7C9F82620FFF7B8F807B0F0BDD3
:1020C00016488742FAD1186840F4802018601868D2
:1020D00000F480200590086840F00200086008685D
:1020E00002AF00F0020005904FF44060CDE900041B
:1020F00087E8640069460A48FEF732FF002205219E
:102100002720FFF7A1F82720D6E7000000100140A4
:1021100030380240000002400044004000480040C7
:102120000004024090F83A30202B22D1F9B1F2B1EC
:1021300090F83830012B1CD081628285C285002145
:10214000C163222280F83A2080F838100168CA68FA
:1021500042F48072CA6001684A6942F001024A6131
:102160000068C16841F02001C16000207047012073
:1021700070470220704700001E4A10B51E49904269
:1021800009D11E4B88884A781A54401C8880012245
:10219000491C184828E01A4A904229D119480A785F
:1021A0008B788354521CD2B210440A7010F8011C70
:1021B0000A2915D110F8020C0D2811D14FF6FF7322
:1021C0001049114800F02EF80F48FFF75BFE212858
:1021D000FAD00EA000F0F6FD1148006801F036FEBE
:1021E000054901220648891CBDE81040FFF79ABF47
:1021F00010BD00009C0D00201400002004020020EF
:10220000DC0D0020D40900205C0D0020C4FACBF9BD
:10221000CAD5B5BDB5C4CAFDBEDDCAC7A3BA0000E4
:10222000680100202DE9F843044690F839001F4664
:1022300016460D46202850D1B5B1AEB194F83800FD
:1022400001284AD0012084F838004FF00008C4F873
:102250003C80212084F83900FEF76AFFA68481467D
:10226000E68484F8388026E00120BDE8F883E08C1D
:10227000401EE084A0684B46B0F5805F4FF000023E
:102280004FF080012046009703D000F054FDE8B9DC
:102290000DE000F050FDC8B928882168C0F308009F
:1022A0004860206908B16D1C05E0AD1C03E02168A1
:1022B00015F8010B4860E08C0028D8D14B4600226D
:1022C00040212046009700F036FD08B10320CCE7FE
:1022D000202084F839000020C7E70220C5E77047B6
:1022E00031B500244FF6FF759DF8000000280ED090
:1022F0002B46012269460648FFF794FF0448FFF782
:10230000C1FD2128FAD0641CE4B2032CECD338BD03
:10231000DC0D002070B5054600244FF6FF76285DE1
:1023200000280DD02919334601220648FFF77AFF0D
:102330000448FFF7A7FD2128FAD0641CE4B2EEE7B9
:1023400070BD0000DC0D002010B5C820FEF7F6FDC2
:10235000FF20FFF7C5FFBDE81040C820FEF7EEBD27
:10236000FEE7000010B598B00020159016900121EE
:1023700015A801F04BFD124C1C2212492061684641
:10238000FDF7B5FF0021684601F0BAFD0D49606018
:102390001C221C3107A8FDF7AAFF002107A801F0A5
:1023A000AFFD0849A0601C2238310EA8FDF79FFF41
:1023B00000210EA801F0A4FDE06018B010BD0000DF
:1023C00058010020EC59000870B586B01421684609
:1023D000FDF7A6FF1A480024016841F020010160C2
:1023E000016801F020010591016841F08001016060
:1023F000016801F080010591016841F0010101606F
:10240000016801F001010591016841F002010160DC
:1024100000680C4E00F002004FF4C06505900022E9
:1024200029463046FEF77FFE01200095CDE90104E4
:10243000694630460394FEF793FD06B070BD000078
:10244000303802400014024010B586B014216846AE
:10245000FDF766FF1B48002419490594C0E90014E4
:102460007F218160FF21C0E9031444618461FFF78B
:10247000C1FA08B1FEF716FD8DF800408DF8014055
:102480008DF802400394012269460E480494FFF738
:1024900077FB08B1FEF706FD01208DF814008DF8DA
:1024A00015008DF8160002468DF8174005A905485D
:1024B000FFF702FB002801D0FEF7F4FC06B010BDC8
:1024C000002800403C0D00200C4810B50A4901606E
:1024D0004FF4E1314160002181600C22C160C0E90C
:1024E00004128161C161FFF75DFD002803D0BDE8E2
:1024F0001040FEF7D7BC10BD001001405C0D00205D
:102500000C4810B50A4901604FF4E13141600021E7
:1025100081600C22C160C0E904128161C161FFF7D2
:1025200041FD002803D0BDE81040FEF7BBBC10BD44
:10253000004400409C0D00200C4810B50A49016081
:102540004FF4E1314160002181600C22C160C0E99B
:1025500004128161C161FFF725FD002803D0BDE8A9
:102560001040FEF79FBC10BD00480040DC0D00206D
:10257000FEE77047010901EB810100F00F0000EB5D
:102580004100C0B27047002102E00A38C0B2491CC5
:102590000A28FAD2090740EA1160704770B504466C
:1025A0000068C168490614D44FF0FF31C160FEF7DE
:1025B000BFFD05464FF47A7607E000BFFEF7B8FD91
:1025C000401BB04201D9032070BD2068C06840069E
:1025D000F4D5002070BD00001CB5DFF864A1DFF861
:1025E00064B1DFF86491594C002740F6AC58684656
:1025F000CDE900AB01F056F9404601F0FBFBFEF7D8
:1026000053FC5348FEF770FC42F2107001F0F2FBED
:10261000504801F076F950A1206001F03FF94D4695
:10262000C9F8000001F024F901464DA000F0CAFBF2
:10263000206800284CD00021286801F013F949498E
:10264000086049A101F02AF9484E49A1306001F023
:1026500025F9494D28604FF47A7001F0CBFB47A172
:10266000306801F01BF9484E30602868016947A0C6
:1026700000F0A8FB3068016944A000F0A3FB2868C3
:1026800001694448FDF76CFE306801694248FDF776
:1026900067FE414A41A1464800F0A4FB4448FFF7C9
:1026A00039FEFF20FFF71CFE3B483A4D07600771DB
:1026B0002878012813D030281DD031281BD0342889
:1026C0001ED035281CD036281AD039281DD025E038
:1026D00001F0DCF8014637A000F074FB21E06878D7
:1026E000332803D0342801D0352817D137A000F083
:1026F00069FB39A00DE03DA000F064FB3EA008E0BE
:1027000042A000F05FFB45A003E049A000F05AFBA7
:102710004AA0FFF7FFFDFF20FFF7E2FD78202870B9
:1027200068704FF4FA610B48FDF7FAFD48480780DE
:10273000206801F073F8404601F05CFB57E70000A9
:10274000F9480008594C0008200000201C00002017
:10275000D300002004020020726573756C7473004E
:102760000A256400300000206E6F770024000020EE
:10277000636F6465000000002800002074656D70C0
:1027800065726174757265002C0000206E0D2573F2
:102790000A0D0000340000203900002070616765D8
:1027A000302E74342E7478743D222573220000007C
:1027B000460100200A6A736F6E20666D7420657290
:1027C000726F723A25730A2E000000000ACCECC624
:1027D000F8A3BAD3EA0A000070616765302E74313D
:1027E0002E7478743D22D3EA220000000ACCECC695
:1027F000F8A3BAC7E70A000070616765302E74312C
:102800002E7478743D22C7E7220000000ACCECC683
:10281000F8A3BAB6E0D4C60A00000000706167658C
:10282000302E74312E7478743D22B6E0D4C6220066
:102830000ACCECC6F8A3BAD2F50A0000706167654D
:10284000302E74312E7478743D22D2F522000000AF
:102850001800002008B5164D164C4FF480666F1511
:102860004FF47A7831462846FEF756FC394628461A
:10287000FEF752FC00220F490F48FFF78FF80022A5
:102880000E490D48FFF768F8A07800900B48637870
:1028900022780BA1143000F0A5FA08481430FFF795
:1028A00039FDFF20FFF71CFD404601F0A3FAD9E7F0
:1028B00000140240D40A00203C0D002058010020E2
:1028C00070616765302E74302E7478743D22253027
:1028D0003264A3BA25303264A3BA253032642200B0
:1028E0000E4D0F4C4FF0FF374FF6FF7800264FF498
:1028F00080793946286901F0D1FA4346227809499E
:102900000948FFF78FFC0848FFF7BCFA2128FAD0E6
:10291000267049460348FDF703FDEAE75801002009
:1029200014000020D40900205C0D002010B55020B8
:1029300080F31188BFF34F8FBFF36F8F02F0C0FE9B
:1029400018B104494FF080500860002080F31188CE
:1029500010BD000004ED00E030B597B030216846AE
:10296000FDF7DEFC14210CA8FDF7DAFC0025204859
:102970001195129513951495016841F080510160ED
:10298000006800F0805015901A48016841F48041B9
:1029900001600068022400F4804015900920009036
:1029A0004FF4803001900120CDE9050480050790A7
:1029B000082008904FF4A870CDE9090404200B907A
:1029C0006846FEF71BFE0F20CDE90C0480200E9018
:1029D0004001CDE90F0502210CA8FEF705FD2002FC
:1029E0001490119411A8FEF761FC17B030BD0000DF
:1029F00040380240007000400548016841F4700111
:102A0000016003494FF000608039086070470000A2
:102A100088ED00E00148FFF774B900001C0E0020AB
:102A2000F0B50268254C264D264E274F274B4FF018
:102A3000804CA04209D0604507D0A84205D0B042E2
:102A400003D0B84201D0984204D122F0700E4A68F7
:102A500042EA0E02A0421BD0604519D0A84217D00E
:102A6000B04215D0B84213D0984211D0184DA842A8
:102A70000ED0184DA8420BD0174DA84208D0174DC4
:102A8000A84205D0164DA84202D0164DA84203D147
:102A900022F44075CA682A434D6922F080022A4315
:102AA00002608A68C2620A688262A04201D09842CB
:102AB00001D10969016301214161F0BD00000140BC
:102AC0000004004000080040000C004000040140E9
:102AD000004001400044014000480140001800400F
:102AE000001C00400020004010B5806B0021C18513
:102AF000C184FFF7C6F910BD0168CA6822F490725C
:102B0000CA6001684A6922F001024A61202180F806
:102B10003A10704710B590F83A10222901D00220DF
:102B200010BD8168B1F5805F11D00169002901688D
:102B30001FD0496801F07F03816A4A1C82620B70D2
:102B4000C18D491E0904090CC18518D02BE002690A
:102B5000816A002A0268526805D0D2B20A80816A6E
:102B6000491C8162ECE7C2F308020A80816A891C71
:102B7000F7E74A68816A4B1C83620A70E0E70168E4
:102B8000CA6822F02002CA600168CA6822F4807212
:102B9000CA6001684A6922F001024A61202180F876
:102BA0003A10FFF7E9FA002010BD00002DE9F041CE
:102BB000044600680169E26821F440511143016153
:102BC0002169A068E26908436169114308432168EB
:102BD000CA6849F20C639A430243CA60206841699B
:102BE000A26921F4407111434161E069192764250C
:102BF0003226B0F5004F354A354920684FF00008BD
:102C000006D0884201D0904236D1FEF7B7FC35E0BD
:102C1000884201D0904202D1FEF7B0FC01E0FEF7FD
:102C20009DFC61684A18A0FB070148EB0803FDF70B
:102C300027FB0146B0FBF5F00201B1FBF5F06FF0A8
:102C40001803584301EB800006EBC000B0FBF5F021
:102C500000F0F80002EB4002B1FBF5F0584301EB45
:102C6000800006EBC000B0FBF5F000F00700216823
:102C700010448860BDE8F081FEF770FC61688B0F3E
:102C80008A00A0FB0701FDF7FBFA0146B0FBF5F057
:102C90006FF01802504301EB800006EB0010B0FB10
:102CA000F5F000F0F002B1FBF5F002EB0012B1FB21
:102CB000F5F06FF01803584301EB800006EB0010AD
:102CC000B0FBF5F000F00F00D1E700000014014068
:102CD0000010014090F83910212901D002207047DE
:102CE0008168B1F5805F016A0BD04A1C02620268FC
:102CF00009785160C18C491E0904090CC1840ED0A9
:102D000017E009880268C1F30801516001690029D0
:102D1000016A02D0491C0162ECE7891CFBE70168EB
:102D2000CA6822F08002CA600068C16841F04001B0
:102D3000C160002070472DE9F041984617460E46C5
:102D40000446069D1DE0681C1BD02DB1FEF7F0F96E
:102D5000A0EB0800A84214D92068C16821F4D07102
:102D6000C1602068416921F001014161202084F89F
:102D7000390084F83A00002084F838000320BDE8C8
:102D8000F0812068006836EA000004D00020B842D4
:102D9000D9D00020F3E70120F9E700000148FFF750
:102DA00077B800005C0D00200148FFF771B8000003
:102DB0009C0D00200148FFF76BB80000DC0D0020DF
:102DC000FEE700000FB4054B10B503A9044A0298B2
:102DD00000F070F910BC5DF814FB0000493A0008DF
:102DE000F80100200FB4084B10B504A902AA0398FB
:102DF00000F060F9044602A9002000F0F2FC204631
:102E000010BC5DF814FB0000E33700080907090E49
:102E1000002804DB00F1E02080F80014704700F087
:102E20000F0000F1E02080F8141D704730B528B184
:102E3000144C031F002021680A4605E0084630BDF7
:102E40009A4203D810465268002AF9D1002800D0CF
:102E500041680BD00468A3EB0005A54204D11B68B0
:102E60001C440346046002E0436000E023603AB182
:102E70001C68D51AA54203D115682C441C60526801
:102E80005A6030BDFC01002000B583B09FED060BF9
:102E90000A4601468DED000B6846FDF714FE9DEDD8
:102EA000000B03B000BD00000000000000000000A7
:102EB0002DE9F04782460F4C10480D4E0E4F001B77
:102EC0004FF0000820F007054FF0010900221146DD
:102ED000504600F013FE002802D1306810B10020E7
:102EE000BDE8F0873C60C4E90058C6F80090EDE703
:102EF00000020020544B0020FC010020509B0020C9
:102F000002E008C8121F08C1002AFAD170477047B2
:102F1000002001E001C1121F002AFBD17047000010
:102F20002DE9FF5F82B00021DDE90430020DDDF8FC
:102F300040B0034318D044F61050A2F2FF3242438F
:102F40001514119801281FD0A5EB0B00401C5FEA57
:102F5000000A4FF000064E4FDFF83891B046504659
:102F600015D5CAF1000413E0119801244AA30128E1
:102F700001D16FEA0B010298119AC0E90031C0E952
:102F8000024206B0BDE8F09FCBF10000DFE7044647
:102F90000021404A491842EB0450CDE9001012E0EC
:102FA000E00707D032463B4640464946FDF747FC1E
:102FB0008046894632463B4610461946FDF73FFC9F
:102FC00006460F466410002CEAD1DDE90401DDE974
:102FD0000023BAF1000F06DAFDF731FC42464B46FA
:102FE000FDF72DFC05E0FDF7FEFD42464B46FDF7E3
:102FF000FAFD04460E460022284BFDF7C9FC03D813
:103000004FF0FF30014607E00022254B20463146B5
:10301000FDF76EFBFDF762FE102409E0002C0ADBD1
:103020000A220023FDF72CF9039B30321A55641E47
:1030300050EA0102F2D1641C039AC4F11103144452
:10304000119A012A03D0012208430DD10AE0084356
:1030500004D000204FF0110B119072E7A3EB0B0589
:103060006D1E0DE05B4504DD4FF0000205F101052A
:1030700004E003DA4FF00002A5F10105002AECD0CC
:1030800002981199C0E90231C0E9004579E70000D2
:10309000000014400000F03F300000000000F0434A
:1030A0000000E03F30380A2801D20120704700209C
:1030B000704700002DE9FF4F95B09B4689460646B4
:1030C00000250FE2252877D100242746F84A012160
:1030D000059400E0044316F8013F203B01FA03F099
:1030E0001042F7D130782A2811D06FF02F033078B2
:1030F000A0F13002092A16D8059A44F0020402EB26
:10310000820203EB42021044761C0590EFE759F867
:10311000042B0592002A03DA504244F4005405902F
:1031200044F00204761C30782E2816D116F8010FD0
:1031300044F004042A280DD06FF02F023078A0F15B
:103140003003092B09D807EB870302EB4303C718A9
:10315000761CF3E759F8047B761C30786C280FD086
:1031600006DC4C2817D068280DD06A2814D104E05A
:10317000742810D07A280FD10DE044F400140AE02E
:1031800044F4801401E044F440147278824202D185
:1031900004F58014761C761C307866280BD013DC7E
:1031A000582877D009DC002875D04528F6D0462865
:1031B000F4D047281AD19DE118E0632835D064285F
:1031C00079D0652812D195E1702873D008DC672882
:1031D000F1D069286FD06E280DD06F2806D1B5E0E8
:1031E00073282CD0752875D0782874D05A46179932
:1031F00090476D1C75E1C4F30250022809D00328E2
:103200000DD0D9F8001004280DD00D6009F1040983
:1032100067E1D9F80010EA17C1E90052F6E7D9F8DA
:1032200000100D80F2E70D70F0E719F8041B8DF81F
:10323000001000208DF80100EA46012003E059F853
:1032400004AB4FF0FF3061074FF0000102D40DE0F6
:1032500008F101018846B9420FDA8045F8DB1AF817
:1032600008100029F4D108E008F1010188468142E4
:10327000FADB1AF808100029F6D105985B46A0EB96
:10328000080721463846179A00F094FA284400EBC4
:10329000080507E04DE029E10DE01AF8010B5A4658
:1032A00017999047B8F10108F7D25B462146384696
:1032B000179A13E142E00A220092C4F302524FF03F
:1032C000000A022A08D059F804CB032A4FEAEC710D
:1032D0000AD00DE029E02AE009F1070121F00702F8
:1032E000F2E802C1914609E00FFA8CFC4FEAEC715A
:1032F000042A03D14FFA8CFC4FEAEC71002907DA5B
:103300000A460021DCF1000C61EB02012D2202E0F3
:10331000220504D52B228DF80420012203E0E207C8
:1033200001D02022F7E7904659E00A2102E010225E
:103330000DE010214FF0000A00910BE010224FF039
:10334000000A44F004040827009203E008224FF02A
:10335000000A0092C4F30252022A05D059F804CBA5
:103360000021032A08D009E009F1070121F0070232
:10337000F2E802C1914605E01FFA8CFC042A01D153
:103380000CF0FF0C4FF00008220728D5702806D05B
:10339000009B83F0100353EA0A0305D00EE040229D
:1033A0008DF80420012208E05CEA010206D03022F8
:1033B0008DF804208DF8050002229046009B83F0D2
:1033C000080353EA0A030AD15CEA010201D1620749
:1033D00005D530228DF804204FF001087F1E5828B3
:1033E00004D034A003900EA802900DE036A0F9E7B7
:1033F00053466046009AFCF743FF84460398825C7C
:103400000298401E029002705CEA0100F0D102981E
:1034100006A9081A00F1200A600702D524F48034B6
:1034200000E00127574502DDA7EB0A0000E000207D
:1034300000EB0A01009005984144401A0590E00312
:1034400006D45B462146179A059800F0B3F9054467
:10345000002706E001A85A46C05D179990476D1CE9
:103460007F1C4745F6DBE0030CD55B462146179AE7
:10347000059800F09FF9054404E030205A4617995A
:1034800090476D1C0099481E00900029F5DC08E06B
:10349000029802995A460078491C02911799904760
:1034A0006D1CBAF10001AAF1010AF1DC65E100002E
:1034B000092801003031323334353637383961620A
:1034C00063646566000000003031323334353637CE
:1034D00038394142434445460000000000F058F9A5
:1034E0000544761C307800287FF4ECAD19B02846EE
:1034F000BDE8F08F620700D4062709F1070222F029
:10350000070CFCE80223E14603F000485FEA080CE0
:1035100002D00FF2702C0DE05FEA045C02D50FF2CE
:10352000682C07E05FEAC47C02D00FF2602C01E057
:10353000AFF2700C4FF0FF3823F00043CDF850C0CD
:1035400065280CD006DC452809D046281DD0472820
:103550003DD13DE0662818D067287ED138E00021B3
:10356000112F01DB112000E0781CCDE9000106A934
:103570000EA8FFF7D5FCDDE90F010E9A039100219B
:10358000009207F1010A04914DE04FF000400097CE
:10359000CDE9011006A90EA8FFF7C2FCDDE90F0274
:1035A00003920E9B11990022DDF80CA00093049267
:1035B00011B9791C00EB010AB7EB0A0004D4C0F181
:1035C000FF3007F1010A0490AAEB0700019044E0E4
:1035D000012F00DA01270021112F01DD112000E069
:1035E0003846CDE9000106A90EA8FFF799FCDDE9F0
:1035F0000F010E9A0391002104910092BA4621070F
:103600000CD40399514500DA8A46BAF1010F05DD61
:10361000009AAAF10101515C302908D0B84202DABF
:1036200010F1040F06DA0121CDE9011015E0AAF12D
:103630000101E9E7002805DC049901440491AAEBA3
:10364000000102E0411C514500DD8A460499401A00
:10365000401C01904FF000400290200704D40198D4
:10366000504501DBCDF8048000208DF84F00029812
:103670000DF14F07B0F1004F25D02B200E9002988E
:103680004FF0020800280CDA404202902D200E90E4
:1036900007E00A210298FDF793F93031029007F80C
:1036A000011DB8F10001A8F10108F2DC0298002820
:1036B000EFD1791E0E980870307800F0200040F0AD
:1036C000450007F8020D12A8C01B00F10708149866
:1036D000007800B1012000EB0A01019801EBE071D4
:1036E00005984144401A401E0590E00306D45B460D
:1036F0002146179A059800F05DF805441498007863
:1037000018B15A46179990476D1CE00324D55B46C3
:103710002146179A059800F04DF805441CE00498DE
:10372000002807DBDDE90301884203DD0098405CE7
:10373000179901E0179930205A469047049805F1EF
:103740000105401C04900198401E019004D12E20D8
:103750005A46179990476D1CBAF10001AAF1010A67
:10376000DDDC05E017F8010B5A46179990476D1CF0
:10377000B8F10001A8F10108F4DC5B462146179A74
:103780000598ABE62D0000002B0000002000000093
:103790002DE9F041044600251E461746880404D44E
:1037A00005E039462020B0476D1C641EF9D5284637
:1037B000BDE8F0812DE9F041044600251E46904603
:1037C000C80301D5302700E02027880404D505E090
:1037D00041463846B0476D1C641EF9D52846BDE801
:1037E000F0810A68531C0B601070704710B530B13F
:1037F000036823B1D0E90121914201D204E0002005
:1038000010BD491C816020B1914202D25C5C202C29
:10381000F7D99142F4D1491E816010BD70B50446BC
:103820000F4E19E0A0892568C0050AD4A06820B110
:10383000FFF7F4FFA089C00503D4206908B17168BF
:103840008847A089800503D4206A08B17168884739
:103850007168204688472C46002CE3D170BD0000DB
:1038600008000020002901DA0020704700F0F8B8B5
:1038700001004FF0000001D0896803E0002070478C
:103880000968401C0029FBD1704700000248D0E9BC
:10389000001008447047000000000020002200F0E3
:1038A000EAB8000030B50D4C0D4A0E4B0E4988B1F8
:1038B0000A60056805B10D604B60406800B1486062
:1038C000002088600868904203D14868984200D17F
:1038D0008C6030BD81E81C0030BD0000154A000836
:1038E000B12E00082D2E00080800002010B5016838
:1038F00028208847040002D02821FCF711FD20462B
:1039000010BD0022114600F06FB800002DE9F0470D
:1039100088B00F4604469A4616461C216846FCF7B6
:10392000FFFC2F480025002C0560456055D08146DE
:10393000E7B3CDE900470295D9E90212D9F81000A2
:103940000491CDE9052009F10800FFF7CFFF5FEAF8
:1039500000082BD000986F4608B1029808B10027E4
:103960000BE00198042808D903221EA10098FCF757
:1039700000FD10B90298C01C02903846FFF736FFD0
:103980000146404600F0FAFC68B1BAF1000F13D0CE
:103990006846FFF72BFFDDE90101814203D202995E
:1039A0000098405C40B14046FFF738FFDDE9011068
:1039B00088420AD205460BE01EB1029900980844DD
:1039C0003060404608B0BDE8F087081E00D0451EB4
:1039D0000EB160193060C9E900450020F2E700002F
:1039E00000000020EFBBBF0070B515460E46040076
:1039F00009D0FCF7A0FC411C2B4632462046BDE80E
:103A00007040FFF783BF002070BD00000149496886
:103A1000084700000800002010B50446FCF78BFCA6
:103A200082B2FF2321460648FEF7FCFB214605A093
:103A3000FFF7C8F9BDE8104040F6AC50FDF77EBA7C
:103A40009C0D00202573000013B54FF6FF73012273
:103A500069460248FEF7E6FB00981CBD5C0D00209D
:103A6000002807D0806801E00068491E002801D0C6
:103A70000029F9D170472DE9F0418846A8B3B8F183
:103A8000000F33D084680AB90AE024686CB3216A55
:103A900059B34046FCF756FC0028F6D120E02468D4
:103AA0001CB3266A5FEA0805F9D0002EF7D0B542AC
:103AB00018D002E098B16D1C761C2878FCF711FC38
:103AC00007463078FCF70DFC87422878F2D0FCF7E7
:103AD00008FC05463078FCF704FC8542DFD124B1B0
:103AE000206A10B12046BDE8F081FFE70020FAE728
:103AF000EFF30580002800D0012070472DE9F04148
:103B00000B3020F00706104D19E02068B04215D3A5
:103B1000B0420AD9871B201DD4F80480FCF7E7FBCC
:103B2000A019C0E90078286004E060682860201DC2
:103B3000FCF7DDFB201D2660BDE8F081251D2C680B
:103B4000002CE2D10020F7E7FC010020FDF7FEFA8F
:103B5000FEF702FFFEF738FCFEF776FCFEF7B4FC3A
:103B6000FEF7CEFCFEF7E8FC01225D495D48FEF75A
:103B7000D9FAFEF7E9FB5CA0FEF7CCFBFF20FEF7CD
:103B8000AFFBFDF76FF956490122491E5D48FEF76C
:103B9000C9FA5348BD30FFF73FFF42F21070FDF7FE
:103BA000CDF95948FFF7ADFE4D4C58A1A41EA060B9
:103BB000FFF774FEE060FFF75BFE014655A0FFF7DC
:103BC00001F9A068002600284FD00021E068FFF727
:103BD00049FE51A1E061FFF761FE50A12061FFF7AE
:103BE0005DFE60614FF47A70FDF7A8F94DA1206980
:103BF000FFF754FEA061606901694DA0FFF7E2F88C
:103C0000A06901694AA0FFF7DDF86069016904F164
:103C10002000FCF7A5FBA069016904F12500FCF771
:103C20009FFB04F1250244A102F20D10FFF7DAF820
:103C300004F59970FEF76EFBFF20FEF751FBC4F808
:103C4000256004F1200584F829602878012813D024
:103C500030281DD031281BD034281ED035281CD048
:103C600036281AD039281DD025E0FFF70FFE01466F
:103C700036A0FFF7A7F821E06878332803D034286E
:103C800001D0352817D137A0FFF79CF838A00DE0F8
:103C90003CA0FFF797F83EA008E042A0FFF792F89B
:103CA00044A003E048A0FFF78DF84AA0FEF732FBDE
:103CB000FF20FEF715FB7820287068704FF4FA613A
:103CC0001148FCF72DFBA6800F48FFF79FFEA06868
:103CD000FFF7A4FDFEF746FB00F093F8FEE70000B7
:103CE00016000020DC0D002070616765302E7430F6
:103CF0002E7478743D223030A3BA3030A3BA3030FD
:103D0000220000009C0D00200402002072657375E3
:103D10006C7473000A2564006E6F7700636F6465CE
:103D20000000000074656D706572617475726500E5
:103D30006E0D25730A0D000070616765302E7434B6
:103D40002E7478743D222573220000000A6A736F76
:103D50006E20666D74206572726F723A25730A2E3A
:103D6000000000000ACCECC6F8A3BAD3EA0A0000AF
:103D700070616765302E74312E7478743D22D3EAF9
:103D8000220000000ACCECC6F8A3BAC7E70A00007C
:103D900070616765302E74312E7478743D22C7E7E8
:103DA000220000000ACCECC6F8A3BAB6E0D4C60ADA
:103DB0000000000070616765302E74312E747874D5
:103DC0003D22B6E0D4C622000ACCECC6F8A3BAD293
:103DD000F50A000070616765302E74312E747874B6
:103DE0003D22D2F52200000001460020842900D0A7
:103DF000C81C704710B500B9012000F097FF0020E3
:103E000010BD10B501F032F8002010BD38B5436880
:103E10004BB1012909D10320002200901146012055
:103E200001F02EF938BD012901D0002038BD032250
:103E30000021012001F000F9040004D000231A46FB
:103E4000194601F095F9204638BD000038B5002428
:103E500005460094FFF74CFE90B16946284601F0F4
:103E600037FA012801D0FF2038BD009888B10A49EF
:103E70004FF080500860BFF34F8FBFF36F8F08E0A3
:103E800000231A461946284601F072F9012800D08D
:103E9000FF24204638BD000004ED00E038B50500E1
:103EA0004FF0000000900FD00024481C0ED001B14C
:103EB0000C46FFF71DFEB8B16A460021284601F006
:103EC00055FA012816D104E0802038BD4FF0FF34A8
:103ED000EFE7009880B109494FF080500860BFF3C8
:103EE0004F8FBFF36F8F07E02146284601F08CFA11
:103EF000012801D0FF2038BD002038BD04ED00E0CE
:103F00007FB50D4604464169B0F9080081B1A16949
:103F100071B1FFF769FFD4E905128DE80700D4E914
:103F200000102B46226901F092FB039004B070BD93
:103F3000FFF75AFF03A9CDE90001208A2B4682B280
:103F4000D4E9001001F056FB012801D00020EDE774
:103F50000398EBE72DE9F04107460025C8680C46B9
:103F60002E46B0F57A7F5BD2401CE0602168A068E5
:103F7000095C5B2954D1401CA0602046FFF736FC49
:103F80004CB1D4E90110884203D22268125C5D2A48
:103F900033D0884203D3A068401EA06040E0401E9A
:103FA00004F11008A0604046FFF7A0FC98B30DB3E1
:103FB000306046600646A068401CA0602046FFF7BF
:103FC00015FC2146304600F0D9F930B32046FFF702
:103FD0000DFC14B3D4E90110884203D22168095CB6
:103FE0002C29E0D06268904217D22168085C5D28D5
:103FF00013D102E005462E46DDE7E068401EE06092
:1040000005B16E602020C7E90250A068401CA06086
:104010000120BDE8F081FFE715B12846FFF7FEFB60
:104020000020F6E7034610B500200246995CA1F196
:104030003004092C01D830380AE0A1F14104052CE4
:1040400001D8373804E0A1F16104052C08D85738AD
:104050000844032A00D20001521C042AE6D310BDF2
:10406000002010BDF0B54FF000022DED028B91B095
:104070000C0005464FF02E03114610923DD02068EB
:10408000D8B36E4627E027683844085C34281BD034
:104090000ADCA0F12B07092F23D2DFE807F0152255
:1040A000151722151515150038280DD006DC3528F2
:1040B0000AD0362808D0372813D105E0392803D094
:1040C000452801D065280CD1705400E07354491C78
:1040D0003F2906D22CB1A068D4F804C04718674520
:1040E000D1D3725410A93046FEF7CEFE1098B0EE30
:1040F000408AF0EE608A864204D1002011B0BDEC07
:10410000028BF0BD9FED130B85ED068B53EC102B4E
:1041100051EC180BFCF73CFC02D86FF000400FE0AC
:104120009FED0E0B51EC180B53EC102BFCF718FC09
:1041300002D84FF0004003E051EC180BFCF7F1FB04
:1041400068610820E8601099A068891B0844A06095
:104150000120D3E70000C0FFFFFFDF4100000000A7
:104160000000E0C12DE9F04107460026C8680C4672
:104170003546B0F57A7F78D2401CE060002C74D0D0
:10418000D4E90110884270D22168095C7B296CD186
:10419000401CA0602046FFF729FBD4E901108842AB
:1041A00003D22268125C7D2A4CD08842A0F1010023
:1041B000A0605AD204F110084046FFF797FBE8B31D
:1041C000F6B1286045600546A068401CA060204606
:1041D000FFF70CFB2146284600F049F878B320464B
:1041E000FFF704FB28692862002028613CB3D4E96A
:1041F0000110884236D22168095C3A2932D102E0A6
:1042000006463546E0E7401CA0602046FFF7EEFA80
:104210002146284600F0B2F888B12046FFF7E6FABA
:10422000D4E90110884203D22168095C2C29C3D04B
:104230006268904216D22168085C01E011E011E04A
:104240007D280FD1E068401EE06006B17560402017
:10425000C7E90260A068401CA0600120BDE8F081B1
:1042600003E016B13046FFF7D9FA0020F6E72DE952
:10427000F84380468B6808684FF00009C418CDF8F1
:10428000009008680E46651CC15C641C22296ED132
:104290000022716808E0BCF15C0F04D17F1C8F42E2
:1042A00065D2521C641C641C271A8F4204D294F8F5
:1042B00000C0BCF1220FEED1271A8F4257D22178CD
:1042C000222954D11844201A801A3169401C884789
:1042D00007004CD0009737E029785C2905D000987A
:1042E0006D1C00F8011B00902EE00220611B0129CB
:1042F00039DB6A78662A14D008DC222A12D02F2AE9
:1043000010D05C2A0ED0622A2DD108E06E2A0ED081
:10431000722A0ED0742A0ED0752A24D10DE00822FC
:1043200000E00C22009901F8012B00910BE00A2219
:10433000F8E70D22F6E70922F4E76A462146284607
:1043400000F09EFB78B10544A542C5D3009981F8E1
:1043500000901021C8E903173068201A401CB06093
:104360000120BDE8F88317B171693846884715B157
:104370003068281AB0600020F3E7000070B50C0028
:1043800005465ED0206800285BD0A16863680A1DDE
:104390009A4205D80844042231A1FBF7EAFF78B31A
:1043A000A0686268411D0126914206D82168052255
:1043B00008442DA1FBF7DDFF28B3A0686268011D4A
:1043C000914206D821680422084429A1FBF7D1FFB5
:1043D000E8B1D4E90101814203D22268525C222A69
:1043E0001DD0814221D22268525C2D2A02D0303A5F
:1043F000092A1AD821462846BDE87040FFF732BE88
:104400000420E86006E0EE60A068401D04E00220A1
:104410006E61E860A068001DA060012070BD2146AB
:104420002846BDE87040FFF722BF814203D22268D0
:10443000525C5B2A07D0814203D22068405C7B2813
:1044400007D0002070BD21462846BDE87040FFF728
:1044500081BD21462846BDE87040FFF783BE0000BD
:104460006E756C6C0000000066616C736500000086
:1044700074727565000000002DE9F041184C0F467C
:10448000054666692068001D00F063FB38B92068A6
:1044900090F82C1001208840A1698143A161681C1B
:1044A00007D137B12168BDE8F0410E48091D00F081
:1044B00093BB20683544B5424560216805D2A068A9
:1044C000BDE8F041091D00F06FBB6068091D00F0F8
:1044D0006BFB206B854200D22563BDE8F0810000B4
:1044E00098010020380F00202DE9F041054600F02A
:1044F0007FFB2E4C2069401C206120682C4F10B19E
:10450000E06940B32DE025602069012829D100260B
:1045100006EB860007EB800000F038FB761C072EC8
:10452000F6D323488C3000F031FB2148A03000F056
:104530002DFB1F48B43000F029FB1D48C83000F0A7
:1045400025FB1B48DC3000F021FB19488C306060F3
:104550001430A06005E02068E96AC06A884200D88B
:104560002560E06A401CE062E96A0120A269884097
:104570001043A06101EB810007EB8000291D00F0D2
:104580002BFB00F055FBE06900280CD02068E96A9D
:10459000C06A884207D207494FF080500860BFF3D5
:1045A0004F8FBFF36F8FBDE8F081000098010020AE
:1045B0005C0E002004ED00E030B4026C0B46002AD3
:1045C0000BD0C1681144C1608468A14201D3016865
:1045D000C16030BC1846FBF78ABE30BC70472DE97D
:1045E000F041856B174604460026026C82B1C7B1C4
:1045F000E068FBF77CFEE168206C091AE160226844
:10460000914202D2A168081AE060022F16D017E08A
:104610002068A8B9A06801F0B7F806460020A0609D
:104620000EE06068FBF763FE216C60680844606020
:10463000A168884204D32068606001E005B16D1E66
:104640006D1CA5633046BDE8F08110B5044690F8B6
:10465000510058B101280CD002280FD0502080F30F
:104660001188BFF34F8FBFF36F8FFEE7206B00F011
:10467000F3FA2046BDE8104000F0EEBA10BD00008D
:1046800010484FF47051420706D0C01D0D4920F06C
:104690000700411AC1F570510B4A00230144C2E9D9
:1046A00000030839103A21F0070111604B600B60DC
:1046B0000B1AC0E9001393604FF000405360D060C4
:1046C000704700004C0F0020E4010020144E154CF0
:1046D000A6F1C8074FF08058DFF84C9012E000BFF9
:1046E00000F086FAF068C568281D00F032FA2069EB
:1046F000401E2061E068401EE06000F099FA284604
:10470000FFF7A3FFE0680028EAD138680128F9D94B
:10471000C9F80080BFF34F8FBFF36F8FF2E700003F
:10472000240F00209801002004ED00E003460098CB
:1047300029B10260C0E90F31012100F0D5BC006051
:10474000F8E72DE9F0479A46DDE9098481466FF0E4
:104750000303206B03EB82021044089E20F007073E
:10476000780707D0502080F31188BFF34F8FBFF335
:104770006F8FFEE7002561B1002023180A5C83F8E3
:1047800034200A5C12B1401C1028F6D384F8435040
:1047900001E084F83450072E00D30626E662C4E90F
:1047A0001165201D00F0FDF904F1180000F0F9F981
:1047B0002461C6F107006462A061E56484F850508A
:1047C00052464946384600F00FF92060B8F1000F14
:1047D00001D0C8F80040BDE8F087000030B51149AD
:1047E00000E011460A688242FBD34B685C188442A1
:1047F00003D1406818444860084643681C18944236
:1048000009D1084C103C2468A24209D052681A44CD
:1048100042600A6812680260814200D0086030BDC0
:104820000460F9E7E401002010B5044600F0E0F967
:10483000A06B28B15FF0000400F0FAF9204610BD2B
:104840000124F9E706484168096829B14168C96847
:10485000C9684968016370474FF0FF31FAE700000B
:104860009801002008484068401C4FF0500080F339
:10487000118804D0BFF34F8FBFF36F8FFEE7BFF3F4
:104880004F8FBFF36F8FFEE7EC0100202DE9F04161
:10489000044600F0ADF994F9455004F1240609E00E
:1048A000606A48B1304601F005F808B100F06CFAD2
:1048B0006D1E6DB2002DF3DC4FF0FF3684F84560BD
:1048C00000F0B6F900F094F994F9445004F110079F
:1048D00009E0206948B1384600F0ECFF08B100F06B
:1048E00053FA6D1E6DB2002DF3DC84F84460BDE810
:1048F000F04100F09DB900002DE9F0410546002788
:1049000000F0EAFA314E306808B9FFF7B9FEF068F6
:1049100005424BD1C5B3083568070ED005F0070036
:10492000C0F108000544680707D0502080F31188C3
:10493000BFF34F8FBFF36F8FFEE72DB370688542D3
:1049400034D82248103001460C6801E020460C465D
:104950006168A94202D221680029F7D131688C42EE
:1049600024D007682168016060680837411B10295E
:104970000FD96019420708D0502080F31188BFF387
:104980004F8FBFF36F8FFEE710E041606560FFF768
:1049900025FF61687068401A7060B268904200D26A
:1049A000B060F06801430020C4E9000100F0BCFFE2
:1049B000780707D0502080F31188BFF34F8FBFF3E3
:1049C0006F8FFEE73846BDE8F0810000D40100207B
:1049D0000449086818B10868826C521C826408682F
:1049E000704700009801002010B5031F4FF080743D
:1049F0001C601B1F21F001011960191F044B0B6083
:104A000014390A60091F6FF0020244380A6010BDB1
:104A1000654800082DE9F04704008A4616D054F88E
:104A2000047CD4F800903E1F564500D956462046D7
:104A3000FEF7FCF905468846324621465046FFF708
:104A40005DF840B1C0F80090BDE8F087BDE8F047E0
:104A50000846FEF72DBA44E9017955B129686A186C
:104A6000211F8A4202D9611B091F2960C5F80480F1
:104A7000EAE7024AC2F80080E6E70000FC010020F5
:104A80002DE9F04705460027481B164689460628AB
:104A90005DDBA81CFFF7C6FA0446A0F55C414FF4A5
:104AA0008060814253D3A4F55841824651451AD2C1
:104AB000A81DA9EB00014FF00C08062947DB01787F
:104AC0005C2944D14178752941D1801CFFF7AAFAAD
:104AD000A0F55C4151453AD2C4F3090161F39F202E
:104AE00000F5803002E04FF006082046802801D211
:104AF000012110E0B0F5006F02D20221C0270AE0C8
:104B0000B0F5803F02D20321E02704E0B0F5881F12
:104B10001DD20421F0274A1E08E000BF00F0BF03A9
:104B2000346843F080038009A354521E12F0FF0240
:104B3000F4D1012901D9384301E000F07F00326847
:104B400010703068084430604046BDE8F0870020AF
:104B5000FBE7D0E9013201699A60D0E901235A608C
:104B60004A68824201D182684A6000220261086874
:104B7000401E086008687047034B036003F154004F
:104B80000860802010607047E80A002000F10801EA
:104B90004FF0FF32C0E90112C160016100210160E4
:104BA000704700210161704730B50B685A1C02D074
:104BB00000F1080202E0026904E022465468256818
:104BC0009D42FAD953684B6099608A6051600861D0
:104BD0000168491C016030BD42684A6093688B607F
:104BE00093685960916008610168491C01607047D1
:104BF000502080F31188BFF34F8FBFF36F8F0A49A6
:104C00004868401C486001280CD10848006810F032
:104C1000FF0F07D0502080F31188BFF34F8FBFF3F1
:104C20006F8FFEE770470000EC01002004ED00E00C
:104C30000849486828B1401E486001D180F31188B6
:104C40007047502080F31188BFF34F8FBFF36F8FF1
:104C5000FEE70000EC01002070B5002827D0144DBD
:104C6000A0F108046168E868014207D1502080F390
:104C70001188BFF34F8FBFF36F8FFEE722683AB101
:104C8000502080F31188BFF34F8FBFF36F8FFEE783
:104C90008143616000F020F96068696808446860D9
:104CA0002046FFF79BFDBDE8704000F03DBE70BDA3
:104CB000D40100204FF0E02000210161816105490D
:104CC0004FF47A720968B1FBF2F1491E4161072184
:104CD000016170479401002010B5FBF7BBFA114940
:104CE00010280ED300F1E02090F8F0030A789042EB
:104CF00007D2502080F31188BFF34F8FBFF36F8F1F
:104D0000FEE709480068896800F4E060884207D936
:104D1000502080F31188BFF34F8FBFF36F8FFEE7F2
:104D200010BD0000EC0100200CED00E010B5020009
:104D300014D00F48806B38B1502080F31188BFF336
:104D40004F8FBFF36F8FFEE700F0C6F800211046CB
:104D5000FFF792FB00F0E8FD002807D105494FF06E
:104D600080500860BFF34F8FBFF36F8F10BD0000FE
:104D70009801002004ED00E002498A6A0260496956
:104D80004160704798010020014901204862704746
:104D90009801002010B50C4650B109490968183136
:104DA000FFF702FF2046BDE810400121FFF764BB7A
:104DB000502080F31188BFF34F8FBFF36F8FFEE752
:104DC0009801002070B504004BD0A26CA2B1606CB9
:104DD000884200D30146E06A884242D0012A40D18D
:104DE000204D2A6894420FD1502080F31188BFF3E0
:104DF0004F8FBFF36F8FFEE7502080F31188BFF312
:104E00004F8FBFF36F8FFEE7E162A269002A02DBDA
:104E1000C1F10701A161144E00EB8000616906EB4E
:104E2000800081421DD1201DFFF793FE012150B962
:104E3000E06A00EB800256F8222022B9AA6901FA42
:104E400000F08243AA61E06AAA6981401143A96126
:104E500000EB800006EB8000211DBDE87040FFF7ED
:104E6000BBBE70BD980100205C0E002010B586B05E
:104E70000024039405AA04A903A80494FFF77CFE68
:104E8000DDE903010094CDE9011000230EA11048D3
:104E9000059A00F0DCFB0F490028486311D0502030
:104EA00080F31188BFF34F8FBFF36F8F4FF0FF3048
:104EB00008630120C8614C6106B0BDE8104000F0F5
:104EC00041B806B010BD000049444C450000000048
:104ED000CD460008980100200248816B491C81637F
:104EE00070470000980100201448816B11B1012126
:104EF00041627047002141628169B1FA81F1C1F1DB
:104F00001F0101EB81020E4951F822306BB101EB18
:104F1000820101F108034A6852684A609A4201D14D
:104F200052684A60D16801607047502080F3118850
:104F3000BFF34F8FBFF36F8FFEE700009801002093
:104F40005C0E00201CB537480168374A914207D1F2
:104F5000502080F31188BFF34F8FBFF36F8FFEE7B0
:104F600000683149491E884207D1502080F31188DA
:104F7000BFF34F8FBFF36F8FFEE72C490878019086
:104F8000FF20087008788DF800009DF800009DF85B
:104F9000002000F0F000904207D0502080F31188EC
:104FA000BFF34F8FBFF36F8FFEE79DF80000204BDC
:104FB00000F0500018700720986005E09DF8002070
:104FC00052008DF80020401E9DF800201206F5D4F6
:104FD0009860032807D0502080F31188BFF34F8FCB
:104FE000BFF36F8FFEE74FF4407098600198087030
:104FF0000C482030016841F470010160016841F003
:1050000070410160FFF756FE00205860FBF7EAF898
:105010000848016841F040410160FBF7CFF80020EB
:105020001CBD000000ED00E071C20F4100E400E093
:10503000EC01002034EF00E0F8B517460E460500FD
:1050400014D0DEB105FB06F04830FFF755FC040034
:105050000AD0002084F8460004F148023B4631465D
:1050600028460094FFF762FB2046F8BD502080F3ED
:105070001188BFF34F8FBFF36F8FFEE70020E3E788
:1050800038B5049D18B153B1CAB181B120E05020A8
:1050900080F31188BFF34F8FBFF36F8FFEE750206F
:1050A00080F31188BFF34F8FBFF36F8FFEE750205F
:1050B00080F31188BFF34F8FBFF36F8FFEE739B1D5
:1050C000502080F31188BFF34F8FBFF36F8FFEE73F
:1050D00048241C46012384F846302B460094FFF7F1
:1050E00025FB204638BD000070B50D46040025D0D4
:1050F000FFF77EFDD4E90F20216802FB0011A160BB
:105100000021A163216861600A46D4E90F01401EB5
:1051100000FB0121E16021464FF0FF3001F8440F10
:10512000487004F110008DB1FFF730FD04F1240048
:10513000FFF72CFDFFF77CFD012070BD502080F3B0
:105140001188BFF34F8FBFF36F8FFEE721690029EE
:10515000F0D000F0AFFB0028ECD004494FF08050B5
:105160000860BFF34F8FBFF36F8FE3E704ED00E0FC
:105170002DE9FF4782B01D468A464FF00008040023
:1051800003D0BAF1000F08D011E0502080F311884D
:10519000BFF34F8FBFF36F8FFEE7206C38B1502005
:1051A00080F31188BFF34F8FBFF36F8FFEE7022D9F
:1051B0000AD1E06B012807D0502080F31188BFF39B
:1051C0004F8FBFF36F8FFEE700F06CFA3F4F4FF049
:1051D00000094FF0805648B9049838B1502080F348
:1051E0001188BFF34F8FBFF36F8FFEE7FFF700FD0E
:1051F000A06BE16B884207D3022D05D00498D0B193
:10520000B8F1000F1AD01EE02A4651462046FFF79B
:10521000E6F9616A19B104F1240000F04BFB20B1FA
:105220003E60BFF34F8FBFF36F8FFFF701FD01208B
:1052300006B0BDE8F087FFF7FBFC22E06846FFF709
:105240009BFD4FF00108FFF7F3FCFFF745FEFFF76A
:10525000CFFC94F94400401C01D184F8449094F9A7
:105260004500401C01D184F84590FFF7E1FC04A9FA
:10527000684600F085F930B12046FFF707FB00F0E3
:1052800053FB0020D4E7FFF7B3FCA06BE16B88422F
:1052900013D1FFF7CDFC04F110000499FFF77AFD5C
:1052A0002046FFF7F3FA00F03FFB00289ED13E6056
:1052B000BFF34F8FBFF36F8F98E7FFF7B9FC20461E
:1052C000FFF7E4FA00F030FB90E7000004ED00E0A7
:1052D00070B50E46040009D0206C78B1502080F3E0
:1052E0001188BFF34F8FBFF36F8FFEE7502080F31D
:1052F0001188BFF34F8FBFF36F8FFEE7206848B967
:10530000A06838B1502080F31188BFF34F8FBFF3EE
:105310006F8FFEE7FFF7E0FC5020EFF3118580F37D
:105320001188BFF34F8FBFF36F8FA16BE06B884283
:1053300018D994F94500491CA163411C04D0401CB4
:1053400084F8450001200EE0606A0028FAD004F1DC
:10535000240000F0AFFA0028F4D0002EF2D0012093
:105360003060EFE7002085F3118870BD2DE9F0472C
:1053700090468946040003D0B9F1000F08D011E02F
:10538000502080F31188BFF34F8FBFF36F8FFEE77C
:10539000206C38B1502080F31188BFF34F8FBFF3DA
:1053A0006F8FFEE7FFF798FC5020EFF3118680F334
:1053B0001188BFF34F8FBFF36F8FA76BF7B194F9CD
:1053C000445049462046FFF7F7F87F1EA763681C44
:1053D00004D06D1C84F84450012010E0206900289E
:1053E000FAD004F1100000F065FA0028F4D0B8F10A
:1053F000000FF1D00121C8F80010EDE7002086F37E
:105400001188BDE8F08700002DE9F343002683B042
:105410000400354609D0206C78B1502080F3118803
:10542000BFF34F8FBFF36F8FFEE7502080F31188DB
:10543000BFF34F8FBFF36F8FFEE700F033F9DFF854
:105440003C814FF000094FF0805748B9049838B1BB
:10545000502080F31188BFF34F8FBFF36F8FFEE7AB
:10546000FFF7C6FBA06BC8B1401EA063206810B94F
:10547000FFF7AEFAA060206950B104F1100000F00F
:1054800019FA28B1C8F80070BFF34F8FBFF36F8FC0
:10549000FFF7CEFB012005B0BDE8F083049808B10A
:1054A00066B10FE03DB1502080F31188BFF34F8FFC
:1054B000BFF36F8FFEE7FFF7BBFB5DE06846FFF7CA
:1054C0005BFC0126FFF7B4FBFFF706FDFFF790FB3F
:1054D00094F94400401C01D184F8449094F94500AB
:1054E000401C01D184F84590FFF7A2FB04A968464F
:1054F00000F046F80028204612D0FFF7C7F900F068
:1055000013FA2046FFF790F90028A9D09DB3FFF7C2
:105510006FFB606A50B3206B0068C0F1070126E0A2
:10552000FFF782F9E0B1206838B9FFF761FBA068A6
:1055300000F076F90546FFF77BFB04F1240004999F
:10554000FFF728FC2046FFF7A1F900F0EDF900284D
:1055500086D1C8F80070BFF34F8FBFF36F8F7FE71E
:105560002046FFF793F900F0DFF979E70021A06802
:10557000FFF728FC9FE7FFE700208CE704ED00E041
:105580002DE9F0410C46050011D0C4B1FFF730FB06
:10559000174B5A696E682068911B471C17D02F68FB
:1055A0009B6A9F4219D0964217D8012410E05020E0
:1055B00080F31188BFF34F8FBFF36F8FFEE750204A
:1055C00080F31188BFF34F8FBFF36F8FFEE7002486
:1055D000FFF72EFB2046BDE8F081884205D9401A2E
:1055E00020602846FFF7C8FBF1E700202060DCE7D9
:1055F000980100202DE9FF5F8346DDE90E8799467B
:1056000016468A469000FFF777F905001CD0542013
:10561000FFF772F9040014D00020256384F85100CC
:10562000CDE90240CDE900874B4632465146584607
:10563000FFF787F82046FEF757FF012004B0BDE8CA
:10564000F09F2846FFF708FB4FF0FF30F6E7F0B574
:1056500085B0DDE90B640A9DA6B1DCB15427009743
:105660002663022684F85160002604AFCDE9024685
:10567000CDE90057FFF765F82046FEF735FF04989F
:1056800005B0F0BD502080F31188BFF34F8FBFF3FA
:105690006F8FFEE7502080F31188BFF34F8FBFF369
:1056A0006F8FFEE70548C16919B1806B18B1002002
:1056B00070470120704702207047000098010020C9
:1056C0002DE9F0412E4C0027A06B40B1206A401C10
:1056D0002062606A00B101273846BDE8F081666942
:1056E000761C666113D16068006838B1502080F381
:1056F0001188BFF34F8FBFF36F8FFEE76068A1681B
:105700006160A060A06A401CA062FFF79BF8206B5C
:10571000DFF87080864209D36068006880B16068F5
:10572000C068C568686886420DD220632068C06A78
:1057300000EB800158F821000128CAD90127C8E7E9
:105740004FF0FF30F1E7281DFFF703FAA86A18B100
:1057500005F11800FFF7FDF9E86A0121A26981400F
:105760001143A16100EB800108EB8100291DFFF7C7
:1057700033FAE86A2168C96A8842CDD30127CBE7AA
:10578000980100205C0E002070B504004FF000016D
:1057900040D0214D2868844207D0502080F31188E2
:1057A000BFF34F8FBFF36F8FFEE7A06C38B1401E81
:1057B000A064636CE26A9A422CD040B12AE0502087
:1057C00080F31188BFF34F8FBFF36F8FFEE7201D6B
:1057D000FFF7BFF9114A012150B9E06A00EB8003DD
:1057E00052F8233023B9AB6901FA00F08343AB616F
:1057F000606CE062C0F10700A061E06AAB698140C3
:105800001943A96100EB800002EB8000211DFFF726
:10581000E3F90121084670BD980100205C0E0020CC
:1058200070B504004FF0000038D0204DE16A2A68BE
:10583000D26A914233D2A069002804DB2868C06A8A
:10584000C0F10700A0611A4E01EB8101606906EB0F
:10585000810188421ED1201DFFF77BF9012150B93B
:10586000E06A00EB800256F8222022B9AA6901FA08
:1058700000F08243AA612868C06AE062AA69814098
:105880001143A96100EB800006EB8000211DFFF7AA
:10589000A3F902E02868C06AE062012070BD616C73
:1058A0002A68D26A9142F8D370BD000098010020A6
:1058B0005C0E00202DE9F041C068C468ACB104F171
:1058C00018000746FFF745F9154DA86B0126A0B152
:1058D00039461448FFF780F9E06A2968C96A8842A6
:1058E0001CD901206E62BDE8F081502080F3118840
:1058F000BFF34F8FBFF36F8FFEE7201DFFF729F92E
:10590000E16AAA6906FA01F01043A86101EB81007F
:105910000449B43901EB8000211DDBE70020E2E7F8
:1059200098010020100F00202DE9F0472C4D002495
:105930002746A86B38B1FFF75BF9A86B401EA86338
:10594000A86B40B146E0502080F31188BFF34F8F21
:10595000BFF36F8FFEE72969224E0120D1B3A6F174
:10596000B40980463068E8B1F068C46804F11800F2
:10597000FFF7EFF8201DFFF7ECF8E06AAA6908FAD4
:1059800000F11143A96100EB800109EB8100211DA9
:10599000FFF722F9E06A2968C96A8842E2D3C5F8AC
:1059A0002480DFE70CB1FEF74DFF2C6A44B1464678
:1059B000FFF786FE00B16E62641EF9D100202862F6
:1059C000686A38B10849012738070860BFF34F8F6C
:1059D000BFF36F8FFFF72CF93846BDE8F087000062
:1059E00098010020100F002004ED00E0B05A0008DC
:1059F000D92500080000000000000000DC050000C0
:105A00000000000000000000985A00085528000817
:105A1000FDFF00000000000080000000000000000A
:105A200000000000A45A0008E1280008FDFF000063
:105A300000000000800000000000000000000000E6
:105A4000000000000000000001020304060708092E
:105A50000000000001020304DDDDDDDDDCBBBBDD99
:105A6000DDDDDDDDDDDDDDDD9888888888888888FE
:105A7000777777777788888885555556666666661E
:105A800066666666666888888333333222222222FD
:105A9000222222222228888D5461736B5F68633032
:105AA000350000005461736B5F6C6564000000009A
:105AB0005461736B5F75736172740000DC5A000887
:105AC0000000002004020000080E0008EC5B000843
:105AD000040200204C9D0000102F00088113B12EFD
